{
  "contractName": "Insurance",
  "abi": [
    {
      "constant": true,
      "inputs": [],
      "name": "DROUGHT_TEMP_THRESDHOLD",
      "outputs": [
        {
          "name": "",
          "type": "uint256"
        }
      ],
      "payable": false,
      "stateMutability": "view",
      "type": "function"
    },
    {
      "constant": false,
      "inputs": [],
      "name": "renounceOwnership",
      "outputs": [],
      "payable": false,
      "stateMutability": "nonpayable",
      "type": "function"
    },
    {
      "constant": true,
      "inputs": [],
      "name": "owner",
      "outputs": [
        {
          "name": "",
          "type": "address"
        }
      ],
      "payable": false,
      "stateMutability": "view",
      "type": "function"
    },
    {
      "constant": true,
      "inputs": [],
      "name": "DROUGHT_DAYS_THRESDHOLD",
      "outputs": [
        {
          "name": "",
          "type": "uint256"
        }
      ],
      "payable": false,
      "stateMutability": "view",
      "type": "function"
    },
    {
      "constant": true,
      "inputs": [],
      "name": "insurer",
      "outputs": [
        {
          "name": "",
          "type": "address"
        }
      ],
      "payable": false,
      "stateMutability": "view",
      "type": "function"
    },
    {
      "constant": false,
      "inputs": [
        {
          "name": "_newOwner",
          "type": "address"
        }
      ],
      "name": "transferOwnership",
      "outputs": [],
      "payable": false,
      "stateMutability": "nonpayable",
      "type": "function"
    },
    {
      "inputs": [
        {
          "name": "_client",
          "type": "address"
        },
        {
          "name": "_duration",
          "type": "uint256"
        },
        {
          "name": "_premium",
          "type": "uint256"
        },
        {
          "name": "_totalCover",
          "type": "uint256"
        },
        {
          "name": "_cropLocation",
          "type": "uint256"
        }
      ],
      "payable": true,
      "stateMutability": "payable",
      "type": "constructor"
    },
    {
      "payable": true,
      "stateMutability": "payable",
      "type": "fallback"
    },
    {
      "anonymous": false,
      "inputs": [
        {
          "indexed": false,
          "name": "_insurer",
          "type": "address"
        },
        {
          "indexed": false,
          "name": "_client",
          "type": "address"
        },
        {
          "indexed": false,
          "name": "_duration",
          "type": "uint256"
        },
        {
          "indexed": false,
          "name": "_premium",
          "type": "uint256"
        },
        {
          "indexed": false,
          "name": "_totalCover",
          "type": "uint256"
        }
      ],
      "name": "contractCreated",
      "type": "event"
    },
    {
      "anonymous": false,
      "inputs": [
        {
          "indexed": false,
          "name": "_paidTime",
          "type": "uint256"
        },
        {
          "indexed": false,
          "name": "_totalPaid",
          "type": "uint256"
        },
        {
          "indexed": false,
          "name": "_finalTemp",
          "type": "uint256"
        }
      ],
      "name": "contractPaidOut",
      "type": "event"
    },
    {
      "anonymous": false,
      "inputs": [
        {
          "indexed": false,
          "name": "_endTime",
          "type": "uint256"
        },
        {
          "indexed": false,
          "name": "_totalReturned",
          "type": "uint256"
        }
      ],
      "name": "contractEnded",
      "type": "event"
    },
    {
      "anonymous": false,
      "inputs": [
        {
          "indexed": false,
          "name": "_temp",
          "type": "uint256"
        }
      ],
      "name": "tempThresholdReached",
      "type": "event"
    },
    {
      "anonymous": false,
      "inputs": [
        {
          "indexed": false,
          "name": "_oracle",
          "type": "address"
        },
        {
          "indexed": false,
          "name": "_jobId",
          "type": "string"
        }
      ],
      "name": "dataRequestSent",
      "type": "event"
    },
    {
      "anonymous": false,
      "inputs": [
        {
          "indexed": false,
          "name": "_temp",
          "type": "uint256"
        }
      ],
      "name": "dataReceived",
      "type": "event"
    },
    {
      "anonymous": false,
      "inputs": [
        {
          "indexed": true,
          "name": "previousOwner",
          "type": "address"
        }
      ],
      "name": "OwnershipRenounced",
      "type": "event"
    },
    {
      "anonymous": false,
      "inputs": [
        {
          "indexed": true,
          "name": "previousOwner",
          "type": "address"
        },
        {
          "indexed": true,
          "name": "newOwner",
          "type": "address"
        }
      ],
      "name": "OwnershipTransferred",
      "type": "event"
    },
    {
      "anonymous": false,
      "inputs": [
        {
          "indexed": true,
          "name": "id",
          "type": "bytes32"
        }
      ],
      "name": "ChainlinkRequested",
      "type": "event"
    },
    {
      "anonymous": false,
      "inputs": [
        {
          "indexed": true,
          "name": "id",
          "type": "bytes32"
        }
      ],
      "name": "ChainlinkFulfilled",
      "type": "event"
    },
    {
      "anonymous": false,
      "inputs": [
        {
          "indexed": true,
          "name": "id",
          "type": "bytes32"
        }
      ],
      "name": "ChainlinkCancelled",
      "type": "event"
    },
    {
      "constant": false,
      "inputs": [
        {
          "name": "_oracle",
          "type": "address"
        },
        {
          "name": "_jobId",
          "type": "string"
        }
      ],
      "name": "checkContract",
      "outputs": [],
      "payable": true,
      "stateMutability": "payable",
      "type": "function"
    },
    {
      "constant": false,
      "inputs": [
        {
          "name": "_requestId",
          "type": "bytes32"
        },
        {
          "name": "_temp",
          "type": "uint256"
        }
      ],
      "name": "checkContractCallBack",
      "outputs": [],
      "payable": true,
      "stateMutability": "payable",
      "type": "function"
    },
    {
      "constant": true,
      "inputs": [],
      "name": "getContractBalance",
      "outputs": [
        {
          "name": "",
          "type": "uint256"
        }
      ],
      "payable": false,
      "stateMutability": "view",
      "type": "function"
    },
    {
      "constant": true,
      "inputs": [],
      "name": "getContractStatus",
      "outputs": [
        {
          "name": "",
          "type": "bool"
        }
      ],
      "payable": false,
      "stateMutability": "view",
      "type": "function"
    },
    {
      "constant": true,
      "inputs": [],
      "name": "getCurrentTemp",
      "outputs": [
        {
          "name": "",
          "type": "uint256"
        }
      ],
      "payable": false,
      "stateMutability": "view",
      "type": "function"
    },
    {
      "constant": true,
      "inputs": [],
      "name": "getDaysOverMaxTemp",
      "outputs": [
        {
          "name": "",
          "type": "uint256"
        }
      ],
      "payable": false,
      "stateMutability": "view",
      "type": "function"
    },
    {
      "constant": true,
      "inputs": [],
      "name": "getCurrentTempDateChecked",
      "outputs": [
        {
          "name": "",
          "type": "uint256"
        }
      ],
      "payable": false,
      "stateMutability": "view",
      "type": "function"
    },
    {
      "constant": true,
      "inputs": [],
      "name": "getDuration",
      "outputs": [
        {
          "name": "",
          "type": "uint256"
        }
      ],
      "payable": false,
      "stateMutability": "view",
      "type": "function"
    },
    {
      "constant": true,
      "inputs": [],
      "name": "getContractStartDate",
      "outputs": [
        {
          "name": "",
          "type": "uint256"
        }
      ],
      "payable": false,
      "stateMutability": "view",
      "type": "function"
    },
    {
      "constant": true,
      "inputs": [],
      "name": "getNow",
      "outputs": [
        {
          "name": "",
          "type": "uint256"
        }
      ],
      "payable": false,
      "stateMutability": "view",
      "type": "function"
    },
    {
      "constant": true,
      "inputs": [],
      "name": "getChainlinkToken",
      "outputs": [
        {
          "name": "",
          "type": "address"
        }
      ],
      "payable": false,
      "stateMutability": "view",
      "type": "function"
    },
    {
      "constant": false,
      "inputs": [],
      "name": "withdrawLink",
      "outputs": [],
      "payable": false,
      "stateMutability": "nonpayable",
      "type": "function"
    }
  ],
  "bytecode": "0x6080604052600160045560006010554260115560405160a08062002c478339810180604052620000339190810190620003a4565b33600660006101000a81548173ffffffffffffffffffffffffffffffffffffffff021916908373ffffffffffffffffffffffffffffffffffffffff1602179055506200008d62000239640100000000026401000000009004565b8134111515620000d4576040517f08c379a0000000000000000000000000000000000000000000000000000000008152600401620000cb9062000502565b60405180910390fd5b33600760006101000a81548173ffffffffffffffffffffffffffffffffffffffff021916908373ffffffffffffffffffffffffffffffffffffffff16021790555084600860006101000a81548173ffffffffffffffffffffffffffffffffffffffff021916908373ffffffffffffffffffffffffffffffffffffffff16021790555042600a8190555083600b8190555082600c8190555081600d819055506000600e819055506001600f60006101000a81548160ff02191690831515021790555080601281905550426009819055507f0203790cae2ea31823a6382172bd46011fcfbab29b22bb78b4b2f266febf6072600760009054906101000a900473ffffffffffffffffffffffffffffffffffffffff16600860009054906101000a900473ffffffffffffffffffffffffffffffffffffffff16600b54600c54600d5460405162000226959493929190620004a5565b60405180910390a1505050505062000578565b6200030673c89bd4e1632d3a43cb03aaad5262cbe4038bc57173ffffffffffffffffffffffffffffffffffffffff166338cc48316040518163ffffffff167c0100000000000000000000000000000000000000000000000000000000028152600401602060405180830381600087803b158015620002b657600080fd5b505af1158015620002cb573d6000803e3d6000fd5b505050506040513d601f19601f82011682018060405250620002f1919081019062000378565b62000308640100000000026401000000009004565b565b80600260006101000a81548173ffffffffffffffffffffffffffffffffffffffff021916908373ffffffffffffffffffffffffffffffffffffffff16021790555050565b60006200035a82516200054e565b905092915050565b60006200037082516200056e565b905092915050565b6000602082840312156200038b57600080fd5b60006200039b848285016200034c565b91505092915050565b600080600080600060a08688031215620003bd57600080fd5b6000620003cd888289016200034c565b9550506020620003e08882890162000362565b9450506040620003f38882890162000362565b9350506060620004068882890162000362565b9250506080620004198882890162000362565b9150509295509295909350565b620004318162000524565b82525050565b6000602d82527f4e6f7420656e6f756768206f7220746f6f206d616e792066756e64732073656e60208301527f6420746f20636f6e7472616374000000000000000000000000000000000000006040830152606082019050919050565b6200049f8162000544565b82525050565b600060a082019050620004bc600083018862000426565b620004cb602083018762000426565b620004da604083018662000494565b620004e9606083018562000494565b620004f8608083018462000494565b9695505050505050565b600060208201905081810360008301526200051d8162000437565b9050919050565b600073ffffffffffffffffffffffffffffffffffffffff82169050919050565b6000819050919050565b600073ffffffffffffffffffffffffffffffffffffffff82169050919050565b6000819050919050565b6126bf80620005886000396000f3006080604052600436106100fc576000357c0100000000000000000000000000000000000000000000000000000000900463ffffffff168063165d35e1146100fe5780632531544214610129578063521c738a14610154578063565e24531461017f5780636f9fb98a146101aa578063715018a6146101d55780638da5cb5b146101ec5780638dc654a214610217578063ad2e8c9b1461022e578063b513b7a514610259578063b807873214610275578063ba2c6440146102a0578063bbe4fd50146102cb578063c032846b146102f6578063d2afaf5514610321578063dbc837c51461033d578063dcbacd1114610368578063f2fde38b14610393575b005b34801561010a57600080fd5b506101136103bc565b604051610120919061227f565b60405180910390f35b34801561013557600080fd5b5061013e6103cb565b60405161014b9190612491565b60405180910390f35b34801561016057600080fd5b506101696103d5565b6040516101769190612491565b60405180910390f35b34801561018b57600080fd5b506101946103db565b6040516101a19190612491565b60405180910390f35b3480156101b657600080fd5b506101bf6103e5565b6040516101cc9190612491565b60405180910390f35b3480156101e157600080fd5b506101ea610404565b005b3480156101f857600080fd5b5061020161053f565b60405161020e919061227f565b60405180910390f35b34801561022357600080fd5b5061022c610565565b005b34801561023a57600080fd5b50610243610796565b6040516102509190612491565b60405180910390f35b610273600480360361026e9190810190611ea8565b6107a0565b005b34801561028157600080fd5b5061028a610bc6565b6040516102979190612491565b60405180910390f35b3480156102ac57600080fd5b506102b5610bcb565b6040516102c29190612491565b60405180910390f35b3480156102d757600080fd5b506102e0610bd5565b6040516102ed9190612491565b60405180910390f35b34801561030257600080fd5b5061030b610bdd565b60405161031891906123b6565b60405180910390f35b61033b60048036036103369190810190611f25565b610bf4565b005b34801561034957600080fd5b50610352610e73565b60405161035f919061227f565b60405180910390f35b34801561037457600080fd5b5061037d610e99565b60405161038a9190612491565b60405180910390f35b34801561039f57600080fd5b506103ba60048036036103b59190810190611e7f565b610ea3565b005b60006103c6610f41565b905090565b6000600e54905090565b610e7481565b6000601054905090565b60003073ffffffffffffffffffffffffffffffffffffffff1631905090565b3373ffffffffffffffffffffffffffffffffffffffff16600760009054906101000a900473ffffffffffffffffffffffffffffffffffffffff1673ffffffffffffffffffffffffffffffffffffffff16141515610496576040517f08c379a000000000000000000000000000000000000000000000000000000000815260040161048d90612431565b60405180910390fd5b600660009054906101000a900473ffffffffffffffffffffffffffffffffffffffff1673ffffffffffffffffffffffffffffffffffffffff167ff8df31144d9c2f0f6b59d69b8b98abd5459d07f2742c4df920b25aae33c6482060405160405180910390a26000600660006101000a81548173ffffffffffffffffffffffffffffffffffffffff021916908373ffffffffffffffffffffffffffffffffffffffff160217905550565b600660009054906101000a900473ffffffffffffffffffffffffffffffffffffffff1681565b60003373ffffffffffffffffffffffffffffffffffffffff16600760009054906101000a900473ffffffffffffffffffffffffffffffffffffffff1673ffffffffffffffffffffffffffffffffffffffff161415156105f9576040517f08c379a00000000000000000000000000000000000000000000000000000000081526004016105f090612431565b60405180910390fd5b610601610f41565b90508073ffffffffffffffffffffffffffffffffffffffff1663a9059cbb338373ffffffffffffffffffffffffffffffffffffffff166370a08231306040518263ffffffff167c0100000000000000000000000000000000000000000000000000000000028152600401610675919061227f565b602060405180830381600087803b15801561068f57600080fd5b505af11580156106a3573d6000803e3d6000fd5b505050506040513d601f19601f820116820180604052506106c79190810190611f61565b6040518363ffffffff167c01000000000000000000000000000000000000000000000000000000000281526004016107009291906122ca565b602060405180830381600087803b15801561071a57600080fd5b505af115801561072e573d6000803e3d6000fd5b505050506040513d601f19601f820116820180604052506107529190810190611efc565b1515610793576040517f08c379a000000000000000000000000000000000000000000000000000000000815260040161078a90612411565b60405180910390fd5b50565b6000600b54905090565b6107a8611d23565b606060011515600f60009054906101000a900460ff161515141515610802576040517f08c379a00000000000000000000000000000000000000000000000000000000081526004016107f9906123f1565b60405180910390fd5b61080a610f6b565b600f60009054906101000a900460ff1615610bc05761085561082b84611067565b3063d2afaf557c010000000000000000000000000000000000000000000000000000000002611092565b9150606060405190810160405280602c81526020017f68747470733a2f2f6f70656e776561746865726d61702e6f72672f646174612f81526020017f322e352f776561746865723f00000000000000000000000000000000000000008152506108bf6012546110c3565b6040805190810160405280602081526020017f62363930376432383965313064373134613665383862333037363166616532328152506040516020018084805190602001908083835b60208310151561092d5780518252602082019150602081019050602083039250610908565b6001836020036101000a038019825116818451168082178552505050505050905001807f69643d000000000000000000000000000000000000000000000000000000000081525060030183805190602001908083835b6020831015156109a85780518252602082019150602081019050602083039250610983565b6001836020036101000a038019825116818451168082178552505050505050905001807f2661707069643d0000000000000000000000000000000000000000000000000081525060070182805190602001908083835b602083101515610a2357805182526020820191506020810190506020830392506109fe565b6001836020036101000a03801982511681845116808217855250505050505090500193505050506040516020818303038152906040529050610aa56040805190810160405280600381526020017f6765740000000000000000000000000000000000000000000000000000000000815250828461121a9092919063ffffffff16565b610b246040805190810160405280600481526020017f70617468000000000000000000000000000000000000000000000000000000008152506040805190810160405280600981526020017f6d61696e2e74656d7000000000000000000000000000000000000000000000008152508461121a9092919063ffffffff16565b610b6f6040805190810160405280600581526020017f74696d657300000000000000000000000000000000000000000000000000000081525060648461124d9092919063ffffffff16565b610b858483670de0b6b3a7640000600102611280565b507f117a6771d9c6a77a8a1b6313e20aa5fecfcde62f05c625ea8722d2e2885e25fa8484604051610bb792919061229a565b60405180910390a15b50505050565b600381565b6000601154905090565b600042905090565b6000600f60009054906101000a900460ff16905090565b8160056000826000191660001916815260200190815260200160002060009054906101000a900473ffffffffffffffffffffffffffffffffffffffff1673ffffffffffffffffffffffffffffffffffffffff163373ffffffffffffffffffffffffffffffffffffffff16141515610ca0576040517f08c379a0000000000000000000000000000000000000000000000000000000008152600401610c9790612451565b60405180910390fd5b60056000826000191660001916815260200190815260200160002060006101000a81549073ffffffffffffffffffffffffffffffffffffffff021916905580600019167f7cc135e0cebb02c3480ae5d74d377283180a2601f8f644edf7987b009316c63a60405160405180910390a260011515600f60009054906101000a900460ff161515141515610d67576040517f08c379a0000000000000000000000000000000000000000000000000000000008152600401610d5e906123f1565b60405180910390fd5b603c6011544203111515610db0576040517f08c379a0000000000000000000000000000000000000000000000000000000008152600401610da790612471565b60405180910390fd5b81601081905550426011819055507f9acb88f10af47daa34522605143d1719bad9aa6562e4c443c8abb9d594ea73f482604051610ded9190612491565b60405180910390a1610e746010541115610e50576001600e600082825401925050819055507f482aafb0c0ea89807632fec96cc4ccea3b73d53bf6c7a1d38dcee1895faff4b2601054604051610e439190612491565b60405180910390a1610e59565b6000600e819055505b6003600e54101515610e6e57610e6d611513565b5b505050565b600760009054906101000a900473ffffffffffffffffffffffffffffffffffffffff1681565b6000600a54905090565b3373ffffffffffffffffffffffffffffffffffffffff16600760009054906101000a900473ffffffffffffffffffffffffffffffffffffffff1673ffffffffffffffffffffffffffffffffffffffff16141515610f35576040517f08c379a0000000000000000000000000000000000000000000000000000000008152600401610f2c90612431565b60405180910390fd5b610f3e81611632565b50565b6000600260009054906101000a900473ffffffffffffffffffffffffffffffffffffffff16905090565b42600b54600954011015611065576000600f60006101000a81548160ff021916908315150217905550600760009054906101000a900473ffffffffffffffffffffffffffffffffffffffff1673ffffffffffffffffffffffffffffffffffffffff166108fc3073ffffffffffffffffffffffffffffffffffffffff16319081150290604051600060405180830381858888f19350505050158015611013573d6000803e3d6000fd5b507f71d9f146944417dd66115a997376d9878c3618f396c331a6c3aa82ce653eae14423073ffffffffffffffffffffffffffffffffffffffff163160405161105c9291906124ac565b60405180910390a15b565b60006060829050600081511415611084576000600102915061108c565b602083015191505b50919050565b61109a611d23565b6110a2611d23565b6110b98585858461172e909392919063ffffffff16565b9150509392505050565b60606000806060600080861415611111576040805190810160405280600181526020017f30000000000000000000000000000000000000000000000000000000000000008152509450611211565b8593505b60008414151561113b578280600101935050600a8481151561113357fe5b049350611115565b826040519080825280601f01601f19166020018201604052801561116e5781602001602082028038833980820191505090505b5091506001830390505b60008614151561120d57600a8681151561118e57fe5b066030017f0100000000000000000000000000000000000000000000000000000000000000028282806001900393508151811015156111c957fe5b9060200101907effffffffffffffffffffffffffffffffffffffffffffffffffffffffffffff1916908160001a905350600a8681151561120557fe5b049550611178565b8194505b50505050919050565b6112318284608001516117e890919063ffffffff16565b6112488184608001516117e890919063ffffffff16565b505050565b6112648284608001516117e890919063ffffffff16565b61127b81846080015161180d90919063ffffffff16565b505050565b600030600454604051602001808373ffffffffffffffffffffffffffffffffffffffff1673ffffffffffffffffffffffffffffffffffffffff166c01000000000000000000000000028152601401828152602001925050506040516020818303038152906040526040518082805190602001908083835b60208310151561131c57805182526020820191506020810190506020830392506112f7565b6001836020036101000a038019825116818451168082178552505050505050905001915050604051809103902090506004548360600181815250508360056000836000191660001916815260200190815260200160002060006101000a81548173ffffffffffffffffffffffffffffffffffffffff021916908373ffffffffffffffffffffffffffffffffffffffff16021790555080600019167fb5e6e01e79f91267dc17b4e6314d5d4d03593d2ceee0fbb452b750bd70ea5af960405160405180910390a2600260009054906101000a900473ffffffffffffffffffffffffffffffffffffffff1673ffffffffffffffffffffffffffffffffffffffff16634000aea0858461142b8761185b565b6040518463ffffffff167c010000000000000000000000000000000000000000000000000000000002815260040161146593929190612378565b602060405180830381600087803b15801561147f57600080fd5b505af1158015611493573d6000803e3d6000fd5b505050506040513d601f19601f820116820180604052506114b79190810190611efc565b15156114f8576040517f08c379a00000000000000000000000000000000000000000000000000000000081526004016114ef906123d1565b60405180910390fd5b60016004600082825401925050819055508090509392505050565b60011515600f60009054906101000a900460ff16151514151561156b576040517f08c379a0000000000000000000000000000000000000000000000000000000008152600401611562906123f1565b60405180910390fd5b600860009054906101000a900473ffffffffffffffffffffffffffffffffffffffff1673ffffffffffffffffffffffffffffffffffffffff166108fc600d549081150290604051600060405180830381858888f193505050501580156115d5573d6000803e3d6000fd5b507fd8874104029b491ba57b1b4875bd4ba8d4a98bf0261e1fdfac96db44022f95f842600d5460105460405161160d939291906124d5565b60405180910390a16000600f60006101000a81548160ff021916908315150217905550565b600073ffffffffffffffffffffffffffffffffffffffff168173ffffffffffffffffffffffffffffffffffffffff161415151561166e57600080fd5b8073ffffffffffffffffffffffffffffffffffffffff16600660009054906101000a900473ffffffffffffffffffffffffffffffffffffffff1673ffffffffffffffffffffffffffffffffffffffff167f8be0079c531659141344cd1fd0a4f28419497f9722a3daafe3b4186f6b6457e060405160405180910390a380600660006101000a81548173ffffffffffffffffffffffffffffffffffffffff021916908373ffffffffffffffffffffffffffffffffffffffff16021790555050565b611736611d23565b6117468560800151610100611959565b50838560000190600019169081600019168152505082856020019073ffffffffffffffffffffffffffffffffffffffff16908173ffffffffffffffffffffffffffffffffffffffff16815250508185604001907bffffffffffffffffffffffffffffffffffffffffffffffffffffffff191690817bffffffffffffffffffffffffffffffffffffffffffffffffffffffff191681525050849050949350505050565b6117f582600383516119b3565b6118088183611b1190919063ffffffff16565b505050565b60008112151561182857611823826000836119b3565b611857565b611856826001837fffffffffffffffffffffffffffffffffffffffffffffffffffffffffffffffff036119b3565b5b5050565b6060600360009054906101000a900473ffffffffffffffffffffffffffffffffffffffff1673ffffffffffffffffffffffffffffffffffffffff16634042994690507c010000000000000000000000000000000000000000000000000000000002600080846000015185602001518660400151876060015160018960800151600001516040516024016118f59897969594939291906122f3565b604051602081830303815290604052907bffffffffffffffffffffffffffffffffffffffffffffffffffffffff19166020820180517bffffffffffffffffffffffffffffffffffffffffffffffffffffffff83818316178352505050509050919050565b611961611d91565b600060208381151561196f57fe5b0614151561198c5760208281151561198357fe5b06602003820191505b81836020018181525050604051808452600081528281016020016040525082905092915050565b6017811115156119e5576119df8160058460ff169060020a0260ff161784611b3390919063ffffffff16565b50611b0c565b60ff81111515611a2c57611a0f601860058460ff169060020a021784611b3390919063ffffffff16565b50611a2681600185611b539092919063ffffffff16565b50611b0b565b61ffff81111515611a7457611a57601960058460ff169060020a021784611b3390919063ffffffff16565b50611a6e81600285611b539092919063ffffffff16565b50611b0a565b63ffffffff81111515611abe57611aa1601a60058460ff169060020a021784611b3390919063ffffffff16565b50611ab881600485611b539092919063ffffffff16565b50611b09565b67ffffffffffffffff81111515611b0857611aef601b60058460ff169060020a021784611b3390919063ffffffff16565b50611b0681600885611b539092919063ffffffff16565b505b5b5b5b5b505050565b611b19611d91565b611b2b83846000015151848551611b75565b905092915050565b611b3b611d91565b611b4b8384600001515184611c32565b905092915050565b611b5b611d91565b611b6c848560000151518585611c82565b90509392505050565b611b7d611d91565b600080600085518511151515611b9257600080fd5b87602001518588011115611bbd57611bbc886002611bb68b602001518b8a01611ce3565b02611cff565b5b875180518860208301019450808988011115611bd95788870182525b60208801935050505b602085101515611c075781518352602083019250602082019150602085039450611be2565b6001856020036101000a03905080198251168184511681811785525050879350505050949350505050565b611c3a611d91565b836020015183101515611c5957611c58846002866020015102611cff565b5b8351805160208583010184815381861415611c75576001820183525b5050508390509392505050565b611c8a611d91565b600085602001518584011115611caa57611ca986600287860102611cff565b5b6001836101000a0390508551838682010185831982511617815281518588011115611cd55784870182525b505085915050949350505050565b600081831115611cf557829050611cf9565b8190505b92915050565b606082600001519050611d128383611959565b50611d1d8382611b11565b50505050565b60c06040519081016040528060008019168152602001600073ffffffffffffffffffffffffffffffffffffffff16815260200160007bffffffffffffffffffffffffffffffffffffffffffffffffffffffff1916815260200160008152602001611d8b611dab565b81525090565b604080519081016040528060608152602001600081525090565b604080519081016040528060608152602001600081525090565b6000611dd182356125f2565b905092915050565b6000611de58251612612565b905092915050565b6000611df9823561261e565b905092915050565b600082601f8301121515611e1457600080fd5b8135611e27611e2282612539565b61250c565b91508082526020830160208301858383011115611e4357600080fd5b611e4e838284612632565b50505092915050565b6000611e638235612628565b905092915050565b6000611e778251612628565b905092915050565b600060208284031215611e9157600080fd5b6000611e9f84828501611dc5565b91505092915050565b60008060408385031215611ebb57600080fd5b6000611ec985828601611dc5565b925050602083013567ffffffffffffffff811115611ee657600080fd5b611ef285828601611e01565b9150509250929050565b600060208284031215611f0e57600080fd5b6000611f1c84828501611dd9565b91505092915050565b60008060408385031215611f3857600080fd5b6000611f4685828601611ded565b9250506020611f5785828601611e57565b9150509250929050565b600060208284031215611f7357600080fd5b6000611f8184828501611e6b565b91505092915050565b611f9381612586565b82525050565b611fa2816125a6565b82525050565b611fb1816125b2565b82525050565b611fc0816125bc565b82525050565b6000611fd182612570565b808452611fe5816020860160208601612641565b611fee81612674565b602085010191505092915050565b600061200782612565565b80845261201b816020860160208601612641565b61202481612674565b602085010191505092915050565b600061203d8261257b565b808452612051816020860160208601612641565b61205a81612674565b602085010191505092915050565b6000602382527f756e61626c6520746f207472616e73666572416e6443616c6c20746f206f726160208301527f636c6500000000000000000000000000000000000000000000000000000000006040830152606082019050919050565b6000603182527f436f6e74726163742068617320656e6465642c2063616e7420696e746572616360208301527f74207769746820697420616e796d6f72650000000000000000000000000000006040830152606082019050919050565b6000601282527f556e61626c6520746f207472616e7366657200000000000000000000000000006020830152604082019050919050565b6000602382527f4f6e6c7920496e737572616e63652070726f76696465722063616e20646f207460208301527f68697300000000000000000000000000000000000000000000000000000000006040830152606082019050919050565b6000602882527f536f75726365206d75737420626520746865206f7261636c65206f662074686560208301527f20726571756573740000000000000000000000000000000000000000000000006040830152606082019050919050565b6000602782527f43616e206f6e6c7920636865636b2074656d6570726174757265206f6e63652060208301527f70657220646179000000000000000000000000000000000000000000000000006040830152606082019050919050565b612279816125e8565b82525050565b60006020820190506122946000830184611f8a565b92915050565b60006040820190506122af6000830185611f8a565b81810360208301526122c18184612032565b90509392505050565b60006040820190506122df6000830185611f8a565b6122ec6020830184612270565b9392505050565b600061010082019050612309600083018b611f8a565b612316602083018a612270565b6123236040830189611fa8565b6123306060830188611f8a565b61233d6080830187611fb7565b61234a60a0830186612270565b61235760c0830185612270565b81810360e08301526123698184611ffc565b90509998505050505050505050565b600060608201905061238d6000830186611f8a565b61239a6020830185612270565b81810360408301526123ac8184611fc6565b9050949350505050565b60006020820190506123cb6000830184611f99565b92915050565b600060208201905081810360008301526123ea81612068565b9050919050565b6000602082019050818103600083015261240a816120c5565b9050919050565b6000602082019050818103600083015261242a81612122565b9050919050565b6000602082019050818103600083015261244a81612159565b9050919050565b6000602082019050818103600083015261246a816121b6565b9050919050565b6000602082019050818103600083015261248a81612213565b9050919050565b60006020820190506124a66000830184612270565b92915050565b60006040820190506124c16000830185612270565b6124ce6020830184612270565b9392505050565b60006060820190506124ea6000830186612270565b6124f76020830185612270565b6125046040830184612270565b949350505050565b6000604051905081810181811067ffffffffffffffff8211171561252f57600080fd5b8060405250919050565b600067ffffffffffffffff82111561255057600080fd5b601f19601f8301169050602081019050919050565b600081519050919050565b600081519050919050565b600081519050919050565b600073ffffffffffffffffffffffffffffffffffffffff82169050919050565b60008115159050919050565b6000819050919050565b60007fffffffff0000000000000000000000000000000000000000000000000000000082169050919050565b6000819050919050565b600073ffffffffffffffffffffffffffffffffffffffff82169050919050565b60008115159050919050565b6000819050919050565b6000819050919050565b82818337600083830152505050565b60005b8381101561265f578082015181840152602081019050612644565b8381111561266e576000848401525b50505050565b6000601f19601f83011690509190505600a265627a7a723058200c949c7b4fc4028fee750b247778dc2dfd9efa3d0ca99fe53a8b22a233e386406c6578706572696d656e74616cf50037",
  "source": "pragma solidity 0.4.24;\npragma experimental ABIEncoderV2;\n\n\n//Remix imports\n//import \"https://github.com/smartcontractkit/chainlink/evm/contracts/ChainlinkClient.sol\";\n//import \"https://github.com/smartcontractkit/chainlink/evm/contracts/vendor/Ownable.sol\";\n//import \"https://github.com/smartcontractkit/LinkToken/contracts/LinkToken.sol\";\n\n\n//Truffle Imports\nimport \"chainlink/contracts/ChainlinkClient.sol\";\nimport \"chainlink/contracts/vendor/Ownable.sol\";\nimport \"chainlink/contracts/interfaces/LinkTokenInterface.sol\";\n\n\ncontract InsuranceProvider {\n    \n    using SafeMath_Chainlink for uint;\n    address public insurer = msg.sender;\n    address [] contracts;\n    address public linkTokenRopsten = 0x20fE562d797A42Dcb3399062AE9546cd06f63280; //address of LINK token on Ropsten\n    \n     constructor()   public payable {\n     \n         //need payable contractor to initiate funds to be used for contracts\n     }\n\n    \n    modifier onlyOwner() {\n\t\trequire(insurer == msg.sender,'Only Insurance provider can do this');\n        _;\n    }\n    \n    event contractCreated(address _insurer, uint _premium, uint _totalCover);\n    \n    //create a new contract for client, automatically approved and deployed \n    function newContract(address _client, uint _duration, uint _premium, uint _totalCover, uint _cropLocation) public payable returns(address) {\n        \n        //to do extra validation to ensure preimium paid matches with total _totalCover\n        require (msg.value > _totalCover.div(100),'Incorrect premium paid');\n        \n        //create contract, send payout amount plus some extra ether so contract has enough gas to do payout tranasctions \n        Insurance i = (new Insurance).value(_totalCover.add(1000000000000000))(_client, _duration, _premium, _totalCover, _cropLocation);\n          \n        contracts.push(address(i));  //to delete run delete contracts[index]\n        \n        emit contractCreated(address(i), msg.value, _totalCover);\n        \n        //now that contract has been created, we need to fund it with enough LINK tokens to fulfil 1 Oracle request per day/60 seconds.\n        LinkTokenInterface link = LinkTokenInterface(i.getChainlinkToken());\n        link.transfer(address(i), (_duration.div(60)) * 1 ether);\n        \n        return address(i);\n        \n    }\n    \n    function getContracts() public view returns (address [] memory) {\n        return contracts;\n    }\n    \n    function getContractStatus(address _address) external view returns (bool) {\n        Insurance i = Insurance(_address);\n        return i.getContractStatus();\n    }\n    \n    //function to end provider contract, in case of bugs or needing to update logic etc, funds are returned to insurance provider\n    function endContractProvider() external payable onlyOwner() {\n        selfdestruct(insurer);\n    }\n    \n    function getContractBalance() external view returns (uint) {\n        return address(this).balance;\n    }\n    \n    //helper function to recover LINK funds if needed\n    function withdrawLink() public onlyOwner {\n        LinkTokenInterface link = LinkTokenInterface(linkTokenRopsten);\n        require(link.transfer(msg.sender, link.balanceOf(address(this))), \"Unable to transfer\");\n    }\n    \n    function getInsurer() external view returns (address) {\n        return insurer;\n    }\n    \n    //fallback function, to receive ether\n    function() external payable {  }\n\n    \n}\n\ncontract Insurance is ChainlinkClient, Ownable  {\n    \n    using SafeMath_Chainlink for uint;\n    \n    uint public constant DROUGHT_TEMP_THRESDHOLD = 3700;  //37 (3700) degrees celcius is threshold for drought in Australia\n    uint public constant DROUGHT_DAYS_THRESDHOLD = 3;  //3 days above the temp is the trigger for contract conditions to be reached\n    uint256 constant private ORACLE_PAYMENT = 1 * LINK;\n    string constant OPEN_WEATHER_URL = \"https://openweathermap.org/data/2.5/weather?\";\n    string constant OPEN_WEATHER_KEY = \"b6907d289e10d714a6e88b30761fae22\";\n\n    \n    address public insurer;\n    address  client;\n    uint contractStartDate;\n\n    uint startDate;\n    uint duration;\n    uint premium;\n    uint totalCover;\n    uint daysOverMaxTemp;\n    bool contractActive;\n    uint currentTemp = 0;\n    uint currentTempDateChecked = now;\n    uint cropLocation;\n\n    \n    modifier onlyOwner() {\n\t\trequire(insurer == msg.sender,'Only Insurance provider can do this');\n        _;\n    }\n    \n    modifier onContractEnded() {\n        if (contractStartDate + duration < now) {\n          _;  \n        } \n    }\n    \n    modifier onContractActive() {\n        require(contractActive == true ,'Contract has ended, cant interact with it anymore');\n        _;\n    }\n    \n    modifier callFrequencyOncePerDay() {\n        require(now - currentTempDateChecked > 60,'Can only check temeprature once per day');\n        _;\n    }\n    \n    event contractCreated(address _insurer, address _client, uint _duration, uint _premium, uint _totalCover);\n    event contractPaidOut(uint _paidTime, uint _totalPaid, uint _finalTemp);\n    event contractEnded(uint _endTime, uint _totalReturned);\n    event tempThresholdReached(uint _temp);\n    event dataRequestSent(address _oracle,string _jobId);\n    event dataReceived(uint _temp);\n\n    \n    //constructor, creates the new Insurance contract\n    constructor(address _client, uint _duration, uint _premium, uint _totalCover, uint _cropLocation)  payable Ownable() public {\n        //set chainlink token to public testnet one\n        setPublicChainlinkToken();\n        \n        //first ensure insurer has fully funded the contract\n        require(msg.value > _totalCover, \"Not enough or too many funds send to contract\");\n        \n        //now initialize values for the contract\n        insurer= msg.sender;\n        client = _client;\n        startDate = now;\n        duration = _duration;\n        premium = _premium;\n        totalCover = _totalCover;\n        daysOverMaxTemp = 0;\n        contractActive = true;\n        cropLocation = _cropLocation;\n        contractStartDate = now;\n        \n        emit contractCreated(insurer,\n                             client,\n                             duration,\n                             premium,\n                             totalCover);\n    }\n    \n    //update contract status, check conditions\n    function checkContract(address _oracle, string memory  _jobId) public payable onContractActive()  {\n        //first call end contract in case of insurance contract duration expiring, if it hasn't won't do anything\n        endContract();\n        \n        //contract may have been marked inactive above, only do request if needed\n        if (contractActive) {\n        \n            //grab updated weather info via Oracle request, should update currentTemp\n            // newRequest takes a JobID, a callback address, and callback function as input\n            Chainlink.Request memory req = buildChainlinkRequest(stringToBytes32(_jobId), address(this), this.checkContractCallBack.selector);\n\n        \n            // Adds an integer with the key \"city\" to the request parameters, to be used by the Oracle node as a parameter when making a REST request\n            string memory url = string(abi.encodePacked(OPEN_WEATHER_URL, \"id=\",uint2str(cropLocation),\"&appid=\",OPEN_WEATHER_KEY));\n            req.add(\"get\", url); //sends the GET request to the oracle\n            req.add(\"path\", \"main.temp\");  //sends the path to be traversed when the GET returns data\n            req.addInt(\"times\", 100);     //tells the Oracle to * the result by 100 \n        \n            sendChainlinkRequestTo(_oracle, req, ORACLE_PAYMENT);  //sends the request to the Oracle Contract which will emit an event that the Oracle Node will pick up and action\n        \n            emit dataRequestSent(_oracle,_jobId);\n        }\n    }\n    \n    \n  \n    //Callback function - This gets called by the Oracle Contract when the Oracle Node passes data back to the Oracle Contract\n    //The function will take the temperature from the GET request and update the Smart Contract\n    function checkContractCallBack(bytes32 _requestId, uint256 _temp) public payable recordChainlinkFulfillment(_requestId) onContractActive() callFrequencyOncePerDay()  {\n        //set current temperature to value returned from Oracle, and store date this was retrieved (to avoid spam and gaming the contract)\n        currentTemp = _temp;\n        currentTempDateChecked = now;\n        emit dataReceived(_temp);\n        \n        //check if payout conditions have been met, if so call payoutcontract, which should also end/kill contract at the end\n        if (currentTemp > DROUGHT_TEMP_THRESDHOLD ) { //temp threshold has been  met, add a day of over threshold\n            daysOverMaxTemp += 1;\n            emit tempThresholdReached(currentTemp);\n        } else {\n            //current temeprature isn't > drought threshold, reset number of days over max temp param (in case it was >0)\n            daysOverMaxTemp = 0;\n        }\n        \n        if (daysOverMaxTemp >= DROUGHT_DAYS_THRESDHOLD) {  // day threshold has been met\n            //need to pay client out insurance amount\n            payOutContract();\n        }\n    }\n    \n    \n    //perform payout - insurance conditions have been met, do payout\n    function payOutContract() private onContractActive()  {\n        \n        //Transfer agreed amount to client\n        client.transfer(totalCover);\n        \n        emit contractPaidOut(now, totalCover, currentTemp);\n        \n        //now that amount has been transferred, can end the contract \n        //mark contract as ended, so no future calls can be done\n        contractActive = false;\n    \n    }  \n    \n    //end contract - insurance conditions have not been met, and contract expired, end contract and return funds\n    function endContract() private onContractEnded()   {\n        //mark contract as ended, so no future calls can be done\n        contractActive = false;\n        \n        //return funds back to insurance provider then end/kill the contract\n        insurer.transfer(address(this).balance);\n        \n        emit contractEnded(now, address(this).balance);\n    }  \n    \n    //debug functions---------------------------------------\n    function getContractBalance() external view returns (uint) {\n        return address(this).balance;\n    } \n    \n    function getContractStatus() external view returns (bool) {\n        return contractActive;\n    }\n    \n    function getCurrentTemp() external view returns (uint) {\n        return currentTemp;\n    }\n    \n    function getDaysOverMaxTemp() external view returns (uint) {\n        return daysOverMaxTemp;\n    }\n    \n    function getCurrentTempDateChecked() external view returns (uint) {\n        return currentTempDateChecked;\n    }\n    \n    function getDuration() external view returns (uint) {\n        return duration;\n    }\n    \n    function getContractStartDate() external view returns (uint) {\n        return startDate;\n    }\n    \n    \n    function getNow() external view returns (uint) {\n        return now;\n    }\n    \n    \n    //debug functions---------------------------------------\n    \n    \n    function getChainlinkToken() public view returns (address) {\n        return chainlinkTokenAddress();\n    }\n    \n    function withdrawLink() public onlyOwner {\n        LinkTokenInterface link = LinkTokenInterface(chainlinkTokenAddress());\n        require(link.transfer(msg.sender, link.balanceOf(address(this))), \"Unable to transfer\");\n    }\n    \n    function stringToBytes32(string memory source) private pure returns (bytes32 result) {\n        bytes memory tempEmptyStringTest = bytes(source);\n        if (tempEmptyStringTest.length == 0) {\n         return 0x0;\n        }\n\n        assembly { // solhint-disable-line no-inline-assembly\n        result := mload(add(source, 32))\n        }\n    }\n    \n    \n    \n    function uint2str(uint _i) internal pure returns (string memory _uintAsString) {\n        if (_i == 0) {\n            return \"0\";\n        }\n        uint j = _i;\n        uint len;\n        while (j != 0) {\n            len++;\n            j /= 10;\n        }\n        bytes memory bstr = new bytes(len);\n        uint k = len - 1;\n        while (_i != 0) {\n            bstr[k--] = byte(uint8(48 + _i % 10));\n            _i /= 10;\n        }\n        return string(bstr);\n    }\n    \n    //fallback function so contrat can receive ether when required\n    function() external payable {  }\n\n    \n}",
  "sourcePath": "D:/Kingsland/05 - Advanced Projects/CODE/AusCrop/contracts/Insurance.sol",
  "compiler": {
    "name": "solc",
    "version": "0.4.24+commit.e67f0147.Emscripten.clang"
  },
  "schemaVersion": "3.0.16",
  "updatedAt": "2019-12-06T03:34:15.059Z",
  "devdoc": {
    "methods": {
      "renounceOwnership()": {
        "details": "Allows the current owner to relinquish control of the contract."
      },
      "transferOwnership(address)": {
        "details": "Allows the current owner to transfer control of the contract to a newOwner.",
        "params": {
          "_newOwner": "The address to transfer ownership to."
        }
      }
    }
  },
  "userdoc": {
    "methods": {
      "renounceOwnership()": {
        "notice": "Renouncing to ownership will leave the contract without an owner. It will not be possible to call the functions with the `onlyOwner` modifier anymore."
      }
    }
  }
}